:400000000080002011000000090300000903000008B5044B1A6803F53F5302331A6000F07BF900BFFA46004010B5054C237833B9044B13B10448AFF300800123237010BDEB
:400040003081FF1F0000000070040000084B10B51BB108490848AFF300800848036803B910BD074B002BFBD0BDE81040184700BF000000003481FF1F70040000C880FF1F4A
:400080000000000062B6FEE7FEE700BFF0B40022174611E050F82760F3B226F0FF0608E001EB420511F812406D78A5550132013BDBB2002BF4D10137152FEBD9F0BC704718
:4000C000064B1B78DBB203F00701054A11701B09013213704422034B1A707047CF0100496E5800407658004008B50A46002100F0B6F908BD38B50122264B1A801823264A70
:400100001370332102321180023213700222234B1A7008224FF040231A70032103F5007319701F4B1B78DBB21E490B701E4B1A8041F25122023B1A80002419250CE01B4B42
:400140001B7803F0010343EA440404F003044FF4F07000F03DF9013D0DB1032CEFD115B90320FFF791FF124B4FF480721A8007221A7000220F490A704820023108701A70EA
:400180000222033B1A700C4A137843F00303137038BD00BF80400040824000400043004008010049A146004022420040254200400440004006400040A243004008B500F0DD
:4001C00043F908BD38B572B63A4A137843F00403137000240CE0384D630019194A0011462A44084691882858FFF77EFF0134E4B2062CF0D900240BE02F49A3001819420027
:4002000088188022016BC06AFFF7D8FF0134E4B2002CF1D029494FF09040FFF737FF284A137843F0020313701032137843F002031370244C237843F040032370A2F5863211
:40024000513A137843F01003137008221E491F48FFF7B4FF08221E491E48FFF7AFFF08221D491E48FFF7AAFF0A221D491D48FFF7A5FF08221C491D48FFF7A0FF08221C4925
:400280001C48FFF79BFF1C4A137843F0080313701A4D61232B70FFF72DFF81232B700122174B1A70FFF70CFF0E2221461548FFF785FF38BDE84600407404000058000048B8
:4002C00003500140A0430040180500480251004020050048C251004028050048F251004030050048105100403C0500482251004044050048325100402243004000480040BC
:4003000004000840B043004008B500F071F803680C2B00D1FEE7FEE708B5104E104D16E029686B68AC68002204E051F8040B43F8040B0432A242F8D1E868002203E0002104
:4003400043F8041B04328242F9D11035013E002EE6D100F053F8FFF795FEFEE701000000D004000008B5104A104B1A60104A136843F40073136000230AE0032B03D80D4A2D
:4003800052F8231000E00C490C4A42F8231001332F2BF2D90A4B1A780A4B1A70074A0A4B1A60FFF70FFF08BD0004FA050CED00E014ED00E000000000090300000080FF1F59
:4003C000BC760040C080FF1F08ED00E0000000000230800803D000BF01380046FCD17047EFF3108072B6704780F31088704700BF014B1868704700BF2C81FF1F0E4B70B5AC
:400400001E460E4C0025E41AA410A54204D056F8253098470135F8E700F048F8084B094C1E46E41AA4100025A54204D056F8253098470135F8E770BDB8040000B8040000CB
:40044000B8040000C004000010B5431E0A44914204D011F8014B03F8014FF8E710BD03460244934202D003F8011BFAE770470000000000004051004030000000014000105E
:4004800000140140800200170140000500400140000A004C014000020050014020000000801601409804004880004300F8B500BFF8BC08BC9E4670474D000000650300008B
:4004C000F8B500BFF8BC08BC9E46704729000000E0040000C880FF1F6800000020000000000000000000000000000000000000000000000000000000000000000000000082
:4005000000000000AA04000000000000000000000000000000000000000000000000000000000000000000000000000000000000000000000000000000000000000000000D
:4005400000000000CC80FF1F000000000000000000000000000000000000000000000000000000000000000000000000000000000000000000000000000000000000000011
:40058000000000000000000000000000000000000000000000000000000000000000000000000000000000000000000000000000000000000000000000000000000000003B
:4005C00000000000000000000000000000000000000000000000000000000000000000000000000000000000000000000000000000000000000000000000000000000000FB
:4006000000000000000000000000000000000000000000000000000000000000000000000000000000000000000000000000000000000000000000000000000000000000BA
:40064000000000000000000000000000000000000000000000000000000000000000000000000000000000000000000000000000000000000000000000000000000000007A
:020000040003F7
:0200000480007A
:40000000035200400264004002650040420401402C050140570601403C070140010B01405E14014045150140131601403C170140021B01400241014003420140024301403C
:40004000024501400446014002470140064C0140094D01400450014009401080640884728638860F870F01800403054008330A0C0B200C010F1E100211E01316141C15C04C
:400080001623183F19FE1C1F1D041E2020082122230124042506280C293E2BC02DE02E232F0E301033F8340F3501362C37063AA03B083E0156025713580459045B045C11D6
:4000C0005D105F0188078C068E019201940698019A069E08A208A407A802AC04B208B607BA20BE04D804DC01DF010120020103200590080109280A820C400E060F5010A00B
:4001000013501508164A19A11A061D301E22211C230129A02A012B2030083120324239203A0A3B405901695470A8720A731081088202C0C7C2FFC4FFCA0FCC0FCE0FD60115
:40014000E880010D0310080409140B2B0D100E010F271138140117021A021E02260128013202340435033601373C388039803E144065410242044401450E460C480549FF74
:400180004AFF4BFF4C624DA04EF04F41500C5418580459045A045B045C015D115F016640670269106A306B106D106E106F1281228351840285E7860D89E78C298D808E16EF
:4001C0009023921C95449731983599019A0A9B0EB010B180B220B360B40FB507B718BA20BE05BF40D409D804D904DB04DC10DF010044042005800A880E020F181508160857
:40020000181419101A401E0A1F042188221023402709310832103320370939543A013C423E10444045A046084D204F585640581059055A405F01600265406708915C93019C
:400240009740984099E09A019C019E40A120A720AA01AD40AE10C0C5C2EAC460CCC6CEBFD0B0D230D68FD838E8800280034C04020511060D074609110B0E0C420E08100D8E
:400280001280146216141840194C1B131C8D2011212022222303248D2708288D2C8D30703130320F334A3480350F39023A0A3B283E105440580459045B045C105F01854A20
:4002C0008714881089738B048C208E039308940C95739611970C981C9A029C14A009A210A335A410A503A60CA714B360B420B50FB61FB710B908BB20BE10BF44C034C1060B
:40030000C5EEC6C0C7B0C82BC9FFCAFFCBFFCEF0CF44D00CD804D904DA04DC11DD01DF01E6C0EA40EB020040010A0240054006080A510B080F16102812801380150217080D
:40034000184019081B101D401E042101221223142404264027182A082B802C402FA0321036023708380439023B103F14444047084C104D014F105721625063208604925124
:4003800093089460950199029A189B809F10A028A280A380A640A720AF10C0CDC2EFC43FCAC3CCC4CE67D0C0D220D80EE002EE024002470449FF4A074BFF4C404D204EF014
:4003C0004F05500854015A045B045D115F01604061A862406320005802400A511028128113801814200A210422D428102A85325433013880391440444104429047104801FE
:4004000049064B2052545304560857805D015EA86110682869146A406B81704072017A107B20800481019460969899109C109D05A204A401A812AC01AD08C00FC20DC40F19
:40044000CA0BCC0FCE0ED027D20CD6F0D804E002EE020808C2100710B008C020AB10E8205D02D60198209D02B020E80198209D020D01610298209D02C204D802190278209B
:40048000850298209D02A502AD01C608DE0200030A0310031A030000600000000498000201020098569A0900049880020A2110D8003800C084130064079A38008402000006
:4004C0008000040084FC000300007F0F80E0001308000028000010003405200006DEFB0C1FFFFFFF2200F008040000000000022404040404000000010000C00040011011DD
:40050000C00100114001400100000000000000000000000000000000500000000000A70008000000000000000000000000000A00400004CBEB0040001000000000BEBE0098
:400540008000410000000000000089000000000000000000000000000000000000000000000000000000000000000000000000000000000000000000000000000000000031
:40058000000000000000000000000000000000000000000000000000000000000000000000000000000000000000000000000000000000000000000000000000000000003B
:4005C00000000000000000000000000000000000000000000000000000000000000000000000000000000000000000000000000000000000000000000000000000000000FB
:4006000000000000000000000000000000000000000000000000000000000000000000000000000000000000000000000000000000000000000000000000000000000000BA
:40064000000000000000000000000000000000000000000000000000000000000000000000000000000000000000000000000000000000000000000000000000000000007A
:0200000490006A
:0400000000004005B7
:0200000490105A
:04000000BC90ACAF55
:0200000490303A
:02000000F4CB3F
:0200000490402A
:4000000000000000000000000000000000000000000000000000000000000000000000000000000000000000000000000000000000000000000000000000000000000000C0
:400040000000000000000000000000000000000000000000000000000000000000000000000000000000000000000000000000000000000000000000000000000000000080
:400080000000000000000000000000000000000000000000000000000000000000000000000000000000000000000000000000000000000000000000000000000000000040
:4000C0000000000000000000000000000000000000000000000000000000000000000000000000000000000000000000000000000000000000000000000000000000000000
:0200000490501A
:0C00000000012E16106900012E190534B5
:00000001FF